{
  "_format": "hh-sol-artifact-1",
  "contractName": "DappVotes",
  "sourceName": "contracts/DappVotes.sol",
  "abi": [
    {
      "anonymous": false,
      "inputs": [
        {
          "indexed": true,
          "internalType": "address",
          "name": "voter",
          "type": "address"
        },
        {
          "indexed": false,
          "internalType": "uint256",
          "name": "timestamp",
          "type": "uint256"
        }
      ],
      "name": "Voted",
      "type": "event"
    },
    {
      "inputs": [
        {
          "internalType": "uint256",
          "name": "id",
          "type": "uint256"
        },
        {
          "internalType": "string",
          "name": "name",
          "type": "string"
        },
        {
          "internalType": "string",
          "name": "image",
          "type": "string"
        }
      ],
      "name": "contest",
      "outputs": [],
      "stateMutability": "nonpayable",
      "type": "function"
    },
    {
      "inputs": [
        {
          "internalType": "string",
          "name": "image",
          "type": "string"
        },
        {
          "internalType": "string",
          "name": "title",
          "type": "string"
        },
        {
          "internalType": "string",
          "name": "description",
          "type": "string"
        },
        {
          "internalType": "uint256",
          "name": "startsAt",
          "type": "uint256"
        },
        {
          "internalType": "uint256",
          "name": "endsAt",
          "type": "uint256"
        }
      ],
      "name": "createPoll",
      "outputs": [],
      "stateMutability": "nonpayable",
      "type": "function"
    },
    {
      "inputs": [
        {
          "internalType": "uint256",
          "name": "id",
          "type": "uint256"
        }
      ],
      "name": "deletePoll",
      "outputs": [],
      "stateMutability": "nonpayable",
      "type": "function"
    },
    {
      "inputs": [
        {
          "internalType": "uint256",
          "name": "id",
          "type": "uint256"
        },
        {
          "internalType": "uint256",
          "name": "cid",
          "type": "uint256"
        }
      ],
      "name": "getContestant",
      "outputs": [
        {
          "components": [
            {
              "internalType": "uint256",
              "name": "id",
              "type": "uint256"
            },
            {
              "internalType": "string",
              "name": "image",
              "type": "string"
            },
            {
              "internalType": "string",
              "name": "name",
              "type": "string"
            },
            {
              "internalType": "address",
              "name": "voter",
              "type": "address"
            },
            {
              "internalType": "uint256",
              "name": "votes",
              "type": "uint256"
            },
            {
              "internalType": "address[]",
              "name": "voters",
              "type": "address[]"
            }
          ],
          "internalType": "struct DappVotes.ContestantStruct",
          "name": "",
          "type": "tuple"
        }
      ],
      "stateMutability": "view",
      "type": "function"
    },
    {
      "inputs": [
        {
          "internalType": "uint256",
          "name": "id",
          "type": "uint256"
        }
      ],
      "name": "getContestants",
      "outputs": [
        {
          "components": [
            {
              "internalType": "uint256",
              "name": "id",
              "type": "uint256"
            },
            {
              "internalType": "string",
              "name": "image",
              "type": "string"
            },
            {
              "internalType": "string",
              "name": "name",
              "type": "string"
            },
            {
              "internalType": "address",
              "name": "voter",
              "type": "address"
            },
            {
              "internalType": "uint256",
              "name": "votes",
              "type": "uint256"
            },
            {
              "internalType": "address[]",
              "name": "voters",
              "type": "address[]"
            }
          ],
          "internalType": "struct DappVotes.ContestantStruct[]",
          "name": "Contestants",
          "type": "tuple[]"
        }
      ],
      "stateMutability": "view",
      "type": "function"
    },
    {
      "inputs": [
        {
          "internalType": "uint256",
          "name": "id",
          "type": "uint256"
        }
      ],
      "name": "getPoll",
      "outputs": [
        {
          "components": [
            {
              "internalType": "uint256",
              "name": "id",
              "type": "uint256"
            },
            {
              "internalType": "string",
              "name": "image",
              "type": "string"
            },
            {
              "internalType": "string",
              "name": "title",
              "type": "string"
            },
            {
              "internalType": "string",
              "name": "description",
              "type": "string"
            },
            {
              "internalType": "uint256",
              "name": "votes",
              "type": "uint256"
            },
            {
              "internalType": "uint256",
              "name": "contestants",
              "type": "uint256"
            },
            {
              "internalType": "bool",
              "name": "deleted",
              "type": "bool"
            },
            {
              "internalType": "address",
              "name": "director",
              "type": "address"
            },
            {
              "internalType": "uint256",
              "name": "startsAt",
              "type": "uint256"
            },
            {
              "internalType": "uint256",
              "name": "endsAt",
              "type": "uint256"
            },
            {
              "internalType": "uint256",
              "name": "timestamp",
              "type": "uint256"
            },
            {
              "internalType": "address[]",
              "name": "voters",
              "type": "address[]"
            },
            {
              "internalType": "string[]",
              "name": "avatars",
              "type": "string[]"
            }
          ],
          "internalType": "struct DappVotes.PollStruct",
          "name": "",
          "type": "tuple"
        }
      ],
      "stateMutability": "view",
      "type": "function"
    },
    {
      "inputs": [],
      "name": "getPolls",
      "outputs": [
        {
          "components": [
            {
              "internalType": "uint256",
              "name": "id",
              "type": "uint256"
            },
            {
              "internalType": "string",
              "name": "image",
              "type": "string"
            },
            {
              "internalType": "string",
              "name": "title",
              "type": "string"
            },
            {
              "internalType": "string",
              "name": "description",
              "type": "string"
            },
            {
              "internalType": "uint256",
              "name": "votes",
              "type": "uint256"
            },
            {
              "internalType": "uint256",
              "name": "contestants",
              "type": "uint256"
            },
            {
              "internalType": "bool",
              "name": "deleted",
              "type": "bool"
            },
            {
              "internalType": "address",
              "name": "director",
              "type": "address"
            },
            {
              "internalType": "uint256",
              "name": "startsAt",
              "type": "uint256"
            },
            {
              "internalType": "uint256",
              "name": "endsAt",
              "type": "uint256"
            },
            {
              "internalType": "uint256",
              "name": "timestamp",
              "type": "uint256"
            },
            {
              "internalType": "address[]",
              "name": "voters",
              "type": "address[]"
            },
            {
              "internalType": "string[]",
              "name": "avatars",
              "type": "string[]"
            }
          ],
          "internalType": "struct DappVotes.PollStruct[]",
          "name": "Polls",
          "type": "tuple[]"
        }
      ],
      "stateMutability": "view",
      "type": "function"
    },
    {
      "inputs": [
        {
          "internalType": "uint256",
          "name": "id",
          "type": "uint256"
        },
        {
          "internalType": "string",
          "name": "image",
          "type": "string"
        },
        {
          "internalType": "string",
          "name": "title",
          "type": "string"
        },
        {
          "internalType": "string",
          "name": "description",
          "type": "string"
        },
        {
          "internalType": "uint256",
          "name": "startsAt",
          "type": "uint256"
        },
        {
          "internalType": "uint256",
          "name": "endsAt",
          "type": "uint256"
        }
      ],
      "name": "updatePoll",
      "outputs": [],
      "stateMutability": "nonpayable",
      "type": "function"
    },
    {
      "inputs": [
        {
          "internalType": "uint256",
          "name": "id",
          "type": "uint256"
        },
        {
          "internalType": "uint256",
          "name": "cid",
          "type": "uint256"
        }
      ],
      "name": "vote",
      "outputs": [],
      "stateMutability": "nonpayable",
      "type": "function"
    }
  ],
  "bytecode": "0x608060405234801561001057600080fd5b506124af806100206000396000f3fe608060405234801561001057600080fd5b50600436106100935760003560e01c806366dd51dc1161006657806366dd51dc146100fe578063b384abef14610111578063cee9dc4514610124578063d343641114610144578063f0d0bc451461016457600080fd5b8063029433f014610098578063120fe89b146100ad5780631a8cbcaa146100cb5780631f35b51d146100eb575b600080fd5b6100ab6100a6366004611d4d565b610177565b005b6100b5610457565b6040516100c29190611fcc565b60405180910390f35b6100de6100d936600461202e565b6108d2565b6040516100c29190612047565b6100ab6100f936600461202e565b610c54565b6100ab61010c366004612061565b610d35565b6100ab61011f3660046120ce565b610fb8565b61013761013236600461202e565b611295565b6040516100c29190612167565b6101576101523660046120ce565b611599565b6040516100c291906121bc565b6100ab6101723660046121cf565b611794565b60008681526002602052604090205460ff166101ae5760405162461bcd60e51b81526004016101a590612269565b60405180910390fd5b60008681526003602052604090206006015461010090046001600160a01b031633146102125760405162461bcd60e51b8152602060048201526013602482015272556e617574686f72697a656420656e7469747960681b60448201526064016101a5565b600084511161025b5760405162461bcd60e51b81526020600482015260156024820152745469746c652063616e6e6f7420626520656d70747960581b60448201526064016101a5565b60008351116102ac5760405162461bcd60e51b815260206004820152601b60248201527f4465736372697074696f6e2063616e6e6f7420626520656d707479000000000060448201526064016101a5565b60008551116102f95760405162461bcd60e51b8152602060048201526019602482015278496d6167652055524c2063616e6e6f7420626520656d70747960381b60448201526064016101a5565b60008681526003602052604090206006015460ff161561035b5760405162461bcd60e51b815260206004820152601760248201527f506f6c6c696e6720616c72656164792064656c6574656400000000000000000060448201526064016101a5565b60008681526003602052604090206004015460011161038c5760405162461bcd60e51b81526004016101a590612291565b8181116103ec5760405162461bcd60e51b815260206004820152602860248201527f456e642064617465206d7573742062652067726561746572207468616e207374604482015267617274206461746560c01b60648201526084016101a5565b6000868152600360205260409020600201610407858261234a565b50600086815260036020819052604090912001610424848261234a565b506000868152600360205260409020600781018390556008810182905560010161044e868261234a565b50505050505050565b6060600060015b60005481116104a05760008181526003602052604090206006015460ff1661048e578161048a81612420565b9250505b8061049881612420565b91505061045e565b508067ffffffffffffffff8111156104ba576104ba611caa565b6040519080825280602002602001820160405280156104f357816020015b6104e0611ad2565b8152602001906001900390816104d85790505b509150600060015b60005481116108cc5760008181526003602052604090206006015460ff166108ba5760036000828152602001908152602001600020604051806101a001604052908160008201548152602001600182018054610556906122c1565b80601f0160208091040260200160405190810160405280929190818152602001828054610582906122c1565b80156105cf5780601f106105a4576101008083540402835291602001916105cf565b820191906000526020600020905b8154815290600101906020018083116105b257829003601f168201915b505050505081526020016002820180546105e8906122c1565b80601f0160208091040260200160405190810160405280929190818152602001828054610614906122c1565b80156106615780601f1061063657610100808354040283529160200191610661565b820191906000526020600020905b81548152906001019060200180831161064457829003601f168201915b5050505050815260200160038201805461067a906122c1565b80601f01602080910402602001604051908101604052809291908181526020018280546106a6906122c1565b80156106f35780601f106106c8576101008083540402835291602001916106f3565b820191906000526020600020905b8154815290600101906020018083116106d657829003601f168201915b505050918352505060048201546020808301919091526005830154604080840191909152600684015460ff8116151560608501526001600160a01b0361010091829004166080850152600785015460a0850152600885015460c0850152600985015460e0850152600a85018054835181860281018601909452808452919094019391928301828280156107af57602002820191906000526020600020905b81546001600160a01b03168152600190910190602001808311610791575b50505050508152602001600b8201805480602002602001604051908101604052809291908181526020016000905b828210156108895783829060005260206000200180546107fc906122c1565b80601f0160208091040260200160405190810160405280929190818152602001828054610828906122c1565b80156108755780601f1061084a57610100808354040283529160200191610875565b820191906000526020600020905b81548152906001019060200180831161085857829003601f168201915b5050505050815260200190600101906107dd565b5050509152508590508361089c81612420565b9450815181106108ae576108ae612439565b60200260200101819052505b806108c481612420565b9150506104fb565b50505090565b6108da611ad2565b60036000838152602001908152602001600020604051806101a001604052908160008201548152602001600182018054610913906122c1565b80601f016020809104026020016040519081016040528092919081815260200182805461093f906122c1565b801561098c5780601f106109615761010080835404028352916020019161098c565b820191906000526020600020905b81548152906001019060200180831161096f57829003601f168201915b505050505081526020016002820180546109a5906122c1565b80601f01602080910402602001604051908101604052809291908181526020018280546109d1906122c1565b8015610a1e5780601f106109f357610100808354040283529160200191610a1e565b820191906000526020600020905b815481529060010190602001808311610a0157829003601f168201915b50505050508152602001600382018054610a37906122c1565b80601f0160208091040260200160405190810160405280929190818152602001828054610a63906122c1565b8015610ab05780601f10610a8557610100808354040283529160200191610ab0565b820191906000526020600020905b815481529060010190602001808311610a9357829003601f168201915b505050918352505060048201546020808301919091526005830154604080840191909152600684015460ff8116151560608501526001600160a01b0361010091829004166080850152600785015460a0850152600885015460c0850152600985015460e0850152600a8501805483518186028101860190945280845291909401939192830182828015610b6c57602002820191906000526020600020905b81546001600160a01b03168152600190910190602001808311610b4e575b50505050508152602001600b8201805480602002602001604051908101604052809291908181526020016000905b82821015610c46578382906000526020600020018054610bb9906122c1565b80601f0160208091040260200160405190810160405280929190818152602001828054610be5906122c1565b8015610c325780601f10610c0757610100808354040283529160200191610c32565b820191906000526020600020905b815481529060010190602001808311610c1557829003601f168201915b505050505081526020019060010190610b9a565b505050915250909392505050565b60008181526002602052604090205460ff16610c825760405162461bcd60e51b81526004016101a590612269565b60008181526003602052604090206006015461010090046001600160a01b03163314610ce65760405162461bcd60e51b8152602060048201526013602482015272556e617574686f72697a656420656e7469747960681b60448201526064016101a5565b600081815260036020526040902060040154600111610d175760405162461bcd60e51b81526004016101a590612291565b6000908152600360205260409020600601805460ff19166001179055565b60008381526002602052604090205460ff16610d635760405162461bcd60e51b81526004016101a590612269565b6000825111610dab5760405162461bcd60e51b81526020600482015260146024820152736e616d652063616e6e6f7420626520656d70747960601b60448201526064016101a5565b6000815111610df45760405162461bcd60e51b8152602060048201526015602482015274696d6167652063616e6e6f7420626520656d70747960581b60448201526064016101a5565b600083815260036020526040902060040154600111610e255760405162461bcd60e51b81526004016101a590612291565b600083815260056020908152604080832033845290915290205460ff1615610e835760405162461bcd60e51b8152602060048201526011602482015270105b1c9958591e4818dbdb9d195cdd1959607a1b60448201526064016101a5565b610e91600180546001019055565b610e99611b45565b6040818101849052602080830184815233606085015260018054855260008881526006845284812086518252909352929091208351815590518392820190610ee1908261234a565b5060408201516002820190610ef6908261234a565b5060608201516003820180546001600160a01b0319166001600160a01b039092169190911790556080820151600482015560a08201518051610f42916005840191602090910190611b84565b50505060008481526005602090815260408083203384528252808320805460ff1916600190811790915587845260038352908320600b01805491820181558352912001610f8f838261234a565b506000848152600360205260408120600501805491610fad83612420565b919050555050505050565b60008281526002602052604090205460ff16610fe65760405162461bcd60e51b81526004016101a590612269565b600082815260046020908152604080832033845290915290205460ff16156110405760405162461bcd60e51b815260206004820152600d60248201526c105b1c9958591e481d9bdd1959609a1b60448201526064016101a5565b60008281526003602052604090206006015460ff161561109a5760405162461bcd60e51b8152602060048201526015602482015274506f6c6c696e67206e6f7420617661696c61626c6560581b60448201526064016101a5565b6000828152600360205260409020600501546001106110f45760405162461bcd60e51b81526020600482015260166024820152754e6f7420656e6f75676820636f6e74657374616e747360501b60448201526064016101a5565b60008281526003602052604090206007015461110e611ab3565b101580156111335750600082815260036020526040902060080154611131611ab3565b105b61117f5760405162461bcd60e51b815260206004820152601960248201527f566f74696e67206d75737420626520696e2073657373696f6e0000000000000060448201526064016101a5565b600082815260036020526040812060040180549161119c83612420565b90915550506000828152600360209081526040808320600a0180546001810182559084528284200180546001600160a01b031916331790558483526006825280832084845290915281206004018054916111f583612420565b9091555050600082815260066020908152604080832084845282528083206005018054600181810183559185528385200180546001600160a01b03191633908117909155868552600484528285208186529093529220805460ff19169092179091557f4d99b957a2bc29a30ebd96a7be8e68fe50a3c701db28a91436490b7d53870ca4611280611ab3565b60405190815260200160405180910390a25050565b6060600060015b60015481116112e65760008481526006602090815260408083208484529091529020548190036112d457816112d081612420565b9250505b806112de81612420565b91505061129c565b508067ffffffffffffffff81111561130057611300611caa565b60405190808252806020026020018201604052801561133957816020015b611326611b45565b81526020019060019003908161131e5790505b509150600060015b600154811161159157600085815260066020908152604080832084845290915290205481900361157f576000858152600660209081526040808320848452825291829020825160c081019093528054835260018101805491928401916113a6906122c1565b80601f01602080910402602001604051908101604052809291908181526020018280546113d2906122c1565b801561141f5780601f106113f45761010080835404028352916020019161141f565b820191906000526020600020905b81548152906001019060200180831161140257829003601f168201915b50505050508152602001600282018054611438906122c1565b80601f0160208091040260200160405190810160405280929190818152602001828054611464906122c1565b80156114b15780601f10611486576101008083540402835291602001916114b1565b820191906000526020600020905b81548152906001019060200180831161149457829003601f168201915b505050505081526020016003820160009054906101000a90046001600160a01b03166001600160a01b03166001600160a01b03168152602001600482015481526020016005820180548060200260200160405190810160405280929190818152602001828054801561154c57602002820191906000526020600020905b81546001600160a01b0316815260019091019060200180831161152e575b50505050508152505084838061156190612420565b94508151811061157357611573612439565b60200260200101819052505b8061158981612420565b915050611341565b505050919050565b6115a1611b45565b6000838152600660209081526040808320858452825291829020825160c081019093528054835260018101805491928401916115dc906122c1565b80601f0160208091040260200160405190810160405280929190818152602001828054611608906122c1565b80156116555780601f1061162a57610100808354040283529160200191611655565b820191906000526020600020905b81548152906001019060200180831161163857829003601f168201915b5050505050815260200160028201805461166e906122c1565b80601f016020809104026020016040519081016040528092919081815260200182805461169a906122c1565b80156116e75780601f106116bc576101008083540402835291602001916116e7565b820191906000526020600020905b8154815290600101906020018083116116ca57829003601f168201915b505050505081526020016003820160009054906101000a90046001600160a01b03166001600160a01b03166001600160a01b03168152602001600482015481526020016005820180548060200260200160405190810160405280929190818152602001828054801561178257602002820191906000526020600020905b81546001600160a01b03168152600190910190602001808311611764575b50505050508152505090505b92915050565b60008451116117de5760405162461bcd60e51b81526020600482015260166024820152755469746c652063616e206e6f7420626520656d70747960501b60448201526064016101a5565b600083511161182f5760405162461bcd60e51b815260206004820152601c60248201527f4465736372697074696f6e2063616e206e6f7420626520656d7074790000000060448201526064016101a5565b600085511161187c5760405162461bcd60e51b8152602060048201526019602482015278496d6167652055524c2063616e6e6f7420626520656d70747960381b60448201526064016101a5565b600082116118d65760405162461bcd60e51b815260206004820152602160248201527f53746172742064617465206d7573742062652067726561746572207468616e206044820152600360fc1b60648201526084016101a5565b8181116119365760405162461bcd60e51b815260206004820152602860248201527f456e642064617465206d7573742062652067726561746572207468616e205374604482015267617274204461746560c01b60648201526084016101a5565b611944600080546001019055565b61194c611ad2565b6000548152604081018590526060810184905260208101869052610100810183905261012081018290523360e0820152611984611ab3565b61014082015280516000908152600360209081526040909120825181559082015182919060018201906119b7908261234a565b50604082015160028201906119cc908261234a565b50606082015160038201906119e1908261234a565b506080820151600482015560a0820151600582015560c082015160068201805460e08501516001600160a81b0319909116921515610100600160a81b031916929092176101006001600160a01b0390931683021790558201516007820155610120820151600882015561014082015160098201556101608201518051611a7191600a840191602090910190611b84565b506101808201518051611a8e91600b840191602090910190611be9565b505090516000908152600260205260409020805460ff19166001179055505050505050565b6000611ac1426103e861244f565b611acd906103e8612466565b905090565b604051806101a0016040528060008152602001606081526020016060815260200160608152602001600081526020016000815260200160001515815260200160006001600160a01b0316815260200160008152602001600081526020016000815260200160608152602001606081525090565b6040518060c0016040528060008152602001606081526020016060815260200160006001600160a01b0316815260200160008152602001606081525090565b828054828255906000526020600020908101928215611bd9579160200282015b82811115611bd957825182546001600160a01b0319166001600160a01b03909116178255602090920191600190910190611ba4565b50611be5929150611c3b565b5090565b828054828255906000526020600020908101928215611c2f579160200282015b82811115611c2f5782518290611c1f908261234a565b5091602001919060010190611c09565b50611be5929150611c50565b5b80821115611be55760008155600101611c3c565b80821115611be5576000611c648282611c6d565b50600101611c50565b508054611c79906122c1565b6000825580601f10611c89575050565b601f016020900490600052602060002090810190611ca79190611c3b565b50565b634e487b7160e01b600052604160045260246000fd5b600082601f830112611cd157600080fd5b813567ffffffffffffffff80821115611cec57611cec611caa565b604051601f8301601f19908116603f01168101908282118183101715611d1457611d14611caa565b81604052838152866020858801011115611d2d57600080fd5b836020870160208301376000602085830101528094505050505092915050565b60008060008060008060c08789031215611d6657600080fd5b86359550602087013567ffffffffffffffff80821115611d8557600080fd5b611d918a838b01611cc0565b96506040890135915080821115611da757600080fd5b611db38a838b01611cc0565b95506060890135915080821115611dc957600080fd5b50611dd689828a01611cc0565b9350506080870135915060a087013590509295509295509295565b6000815180845260005b81811015611e1757602081850181015186830182015201611dfb565b506000602082860101526020601f19601f83011685010191505092915050565b600081518084526020808501945080840160005b83811015611e705781516001600160a01b031687529582019590820190600101611e4b565b509495945050505050565b600082825180855260208086019550808260051b84010181860160005b84811015611ec657601f19868403018952611eb4838351611df1565b98840198925090830190600101611e98565b5090979650505050505050565b60006101a0825184526020830151816020860152611ef382860182611df1565b91505060408301518482036040860152611f0d8282611df1565b91505060608301518482036060860152611f278282611df1565b9150506080830151608085015260a083015160a085015260c0830151611f5160c086018215159052565b5060e0830151611f6c60e08601826001600160a01b03169052565b506101008381015190850152610120808401519085015261014080840151908501526101608084015185830382870152611fa68382611e37565b925050506101808084015185830382870152611fc28382611e7b565b9695505050505050565b6000602080830181845280855180835260408601915060408160051b870101925083870160005b8281101561202157603f1988860301845261200f858351611ed3565b94509285019290850190600101611ff3565b5092979650505050505050565b60006020828403121561204057600080fd5b5035919050565b60208152600061205a6020830184611ed3565b9392505050565b60008060006060848603121561207657600080fd5b83359250602084013567ffffffffffffffff8082111561209557600080fd5b6120a187838801611cc0565b935060408601359150808211156120b757600080fd5b506120c486828701611cc0565b9150509250925092565b600080604083850312156120e157600080fd5b50508035926020909101359150565b805182526000602082015160c0602085015261210f60c0850182611df1565b9050604083015184820360408601526121288282611df1565b91505060018060a01b0360608401511660608501526080830151608085015260a083015184820360a086015261215e8282611e37565b95945050505050565b6000602080830181845280855180835260408601915060408160051b870101925083870160005b8281101561202157603f198886030184526121aa8583516120f0565b9450928501929085019060010161218e565b60208152600061205a60208301846120f0565b600080600080600060a086880312156121e757600080fd5b853567ffffffffffffffff808211156121ff57600080fd5b61220b89838a01611cc0565b9650602088013591508082111561222157600080fd5b61222d89838a01611cc0565b9550604088013591508082111561224357600080fd5b5061225088828901611cc0565b9598949750949560608101359550608001359392505050565b6020808252600e908201526d141bdb1b081b9bdd08199bdd5b9960921b604082015260600190565b602080825260169082015275506f6c6c2068617320766f74657320616c726561647960501b604082015260600190565b600181811c908216806122d557607f821691505b6020821081036122f557634e487b7160e01b600052602260045260246000fd5b50919050565b601f82111561234557600081815260208120601f850160051c810160208610156123225750805b601f850160051c820191505b818110156123415782815560010161232e565b5050505b505050565b815167ffffffffffffffff81111561236457612364611caa565b6123788161237284546122c1565b846122fb565b602080601f8311600181146123ad57600084156123955750858301515b600019600386901b1c1916600185901b178555612341565b600085815260208120601f198616915b828110156123dc578886015182559484019460019091019084016123bd565b50858210156123fa5787850151600019600388901b60f8161c191681555b5050505050600190811b01905550565b634e487b7160e01b600052601160045260246000fd5b6000600182016124325761243261240a565b5060010190565b634e487b7160e01b600052603260045260246000fd5b808202811582820484141761178e5761178e61240a565b8082018082111561178e5761178e61240a56fea26469706673582212207f635ecc0b06bbbddebdd25cfe40e9d2a283f34e8ebe466b4a9a2477b3715cc764736f6c63430008110033",
  "linkReferences": {},
  "deployedLinkReferences": {}
}