{
  "_format": "hh-sol-artifact-1",
  "contractName": "DappVotes",
  "sourceName": "contracts/DappVotes.sol",
  "abi": [
    {
      "anonymous": false,
      "inputs": [
        {
          "indexed": true,
          "internalType": "address",
          "name": "voter",
          "type": "address"
        },
        {
          "indexed": false,
          "internalType": "uint256",
          "name": "timestamp",
          "type": "uint256"
        }
      ],
      "name": "Voted",
      "type": "event"
    },
    {
      "inputs": [
        {
          "internalType": "uint256",
          "name": "id",
          "type": "uint256"
        },
        {
          "internalType": "string",
          "name": "name",
          "type": "string"
        },
        {
          "internalType": "string",
          "name": "image",
          "type": "string"
        }
      ],
      "name": "contest",
      "outputs": [],
      "stateMutability": "nonpayable",
      "type": "function"
    },
    {
      "inputs": [
        {
          "internalType": "string",
          "name": "image",
          "type": "string"
        },
        {
          "internalType": "string",
          "name": "title",
          "type": "string"
        },
        {
          "internalType": "string",
          "name": "description",
          "type": "string"
        },
        {
          "internalType": "uint256",
          "name": "startsAt",
          "type": "uint256"
        },
        {
          "internalType": "uint256",
          "name": "endsAt",
          "type": "uint256"
        }
      ],
      "name": "createPoll",
      "outputs": [],
      "stateMutability": "nonpayable",
      "type": "function"
    },
    {
      "inputs": [
        {
          "internalType": "uint256",
          "name": "id",
          "type": "uint256"
        }
      ],
      "name": "deletePoll",
      "outputs": [],
      "stateMutability": "nonpayable",
      "type": "function"
    },
    {
      "inputs": [
        {
          "internalType": "uint256",
          "name": "id",
          "type": "uint256"
        },
        {
          "internalType": "uint256",
          "name": "cid",
          "type": "uint256"
        }
      ],
      "name": "getContestant",
      "outputs": [
        {
          "components": [
            {
              "internalType": "uint256",
              "name": "id",
              "type": "uint256"
            },
            {
              "internalType": "string",
              "name": "image",
              "type": "string"
            },
            {
              "internalType": "string",
              "name": "name",
              "type": "string"
            },
            {
              "internalType": "address",
              "name": "voter",
              "type": "address"
            },
            {
              "internalType": "uint256",
              "name": "votes",
              "type": "uint256"
            },
            {
              "internalType": "address[]",
              "name": "voters",
              "type": "address[]"
            }
          ],
          "internalType": "struct DappVotes.ContestantStruct",
          "name": "",
          "type": "tuple"
        }
      ],
      "stateMutability": "view",
      "type": "function"
    },
    {
      "inputs": [
        {
          "internalType": "uint256",
          "name": "id",
          "type": "uint256"
        }
      ],
      "name": "getContestants",
      "outputs": [
        {
          "components": [
            {
              "internalType": "uint256",
              "name": "id",
              "type": "uint256"
            },
            {
              "internalType": "string",
              "name": "image",
              "type": "string"
            },
            {
              "internalType": "string",
              "name": "name",
              "type": "string"
            },
            {
              "internalType": "address",
              "name": "voter",
              "type": "address"
            },
            {
              "internalType": "uint256",
              "name": "votes",
              "type": "uint256"
            },
            {
              "internalType": "address[]",
              "name": "voters",
              "type": "address[]"
            }
          ],
          "internalType": "struct DappVotes.ContestantStruct[]",
          "name": "Contestants",
          "type": "tuple[]"
        }
      ],
      "stateMutability": "view",
      "type": "function"
    },
    {
      "inputs": [
        {
          "internalType": "uint256",
          "name": "id",
          "type": "uint256"
        }
      ],
      "name": "getPoll",
      "outputs": [
        {
          "components": [
            {
              "internalType": "uint256",
              "name": "id",
              "type": "uint256"
            },
            {
              "internalType": "string",
              "name": "image",
              "type": "string"
            },
            {
              "internalType": "string",
              "name": "title",
              "type": "string"
            },
            {
              "internalType": "string",
              "name": "description",
              "type": "string"
            },
            {
              "internalType": "uint256",
              "name": "votes",
              "type": "uint256"
            },
            {
              "internalType": "uint256",
              "name": "contestants",
              "type": "uint256"
            },
            {
              "internalType": "bool",
              "name": "deleted",
              "type": "bool"
            },
            {
              "internalType": "address",
              "name": "director",
              "type": "address"
            },
            {
              "internalType": "uint256",
              "name": "startsAt",
              "type": "uint256"
            },
            {
              "internalType": "uint256",
              "name": "endsAt",
              "type": "uint256"
            },
            {
              "internalType": "uint256",
              "name": "timestamp",
              "type": "uint256"
            },
            {
              "internalType": "address[]",
              "name": "voters",
              "type": "address[]"
            },
            {
              "internalType": "string[]",
              "name": "avatars",
              "type": "string[]"
            }
          ],
          "internalType": "struct DappVotes.PollStruct",
          "name": "",
          "type": "tuple"
        }
      ],
      "stateMutability": "view",
      "type": "function"
    },
    {
      "inputs": [],
      "name": "getPolls",
      "outputs": [
        {
          "components": [
            {
              "internalType": "uint256",
              "name": "id",
              "type": "uint256"
            },
            {
              "internalType": "string",
              "name": "image",
              "type": "string"
            },
            {
              "internalType": "string",
              "name": "title",
              "type": "string"
            },
            {
              "internalType": "string",
              "name": "description",
              "type": "string"
            },
            {
              "internalType": "uint256",
              "name": "votes",
              "type": "uint256"
            },
            {
              "internalType": "uint256",
              "name": "contestants",
              "type": "uint256"
            },
            {
              "internalType": "bool",
              "name": "deleted",
              "type": "bool"
            },
            {
              "internalType": "address",
              "name": "director",
              "type": "address"
            },
            {
              "internalType": "uint256",
              "name": "startsAt",
              "type": "uint256"
            },
            {
              "internalType": "uint256",
              "name": "endsAt",
              "type": "uint256"
            },
            {
              "internalType": "uint256",
              "name": "timestamp",
              "type": "uint256"
            },
            {
              "internalType": "address[]",
              "name": "voters",
              "type": "address[]"
            },
            {
              "internalType": "string[]",
              "name": "avatars",
              "type": "string[]"
            }
          ],
          "internalType": "struct DappVotes.PollStruct[]",
          "name": "Polls",
          "type": "tuple[]"
        }
      ],
      "stateMutability": "view",
      "type": "function"
    },
    {
      "inputs": [
        {
          "internalType": "uint256",
          "name": "id",
          "type": "uint256"
        },
        {
          "internalType": "string",
          "name": "image",
          "type": "string"
        },
        {
          "internalType": "string",
          "name": "title",
          "type": "string"
        },
        {
          "internalType": "string",
          "name": "description",
          "type": "string"
        },
        {
          "internalType": "uint256",
          "name": "startsAt",
          "type": "uint256"
        },
        {
          "internalType": "uint256",
          "name": "endsAt",
          "type": "uint256"
        }
      ],
      "name": "updatePoll",
      "outputs": [],
      "stateMutability": "nonpayable",
      "type": "function"
    },
    {
      "inputs": [
        {
          "internalType": "uint256",
          "name": "id",
          "type": "uint256"
        },
        {
          "internalType": "uint256",
          "name": "cid",
          "type": "uint256"
        }
      ],
      "name": "vote",
      "outputs": [],
      "stateMutability": "nonpayable",
      "type": "function"
    }
  ],
  "bytecode": "0x608060405234801561001057600080fd5b506124b4806100206000396000f3fe608060405234801561001057600080fd5b50600436106100935760003560e01c806366dd51dc1161006657806366dd51dc146100fe578063b384abef14610111578063cee9dc4514610124578063d343641114610144578063f0d0bc451461016457600080fd5b8063029433f014610098578063120fe89b146100ad5780631a8cbcaa146100cb5780631f35b51d146100eb575b600080fd5b6100ab6100a6366004611d55565b610177565b005b6100b561045b565b6040516100c29190611fd1565b60405180910390f35b6100de6100d9366004612033565b6108d6565b6040516100c2919061204c565b6100ab6100f9366004612033565b610c58565b6100ab61010c366004612066565b610d39565b6100ab61011f3660046120d3565b610fbc565b610137610132366004612033565b611299565b6040516100c2919061216c565b6101576101523660046120d3565b61159d565b6040516100c291906121c1565b6100ab6101723660046121d4565b611798565b60008681526002602052604090205460ff166101ae5760405162461bcd60e51b81526004016101a59061226e565b60405180910390fd5b60008681526003602052604090206006015461010090046001600160a01b031633146102125760405162461bcd60e51b8152602060048201526013602482015272556e617574686f72697a656420656e7469747960681b60448201526064016101a5565b600084511161025b5760405162461bcd60e51b81526020600482015260156024820152745469746c652063616e6e6f7420626520656d70747960581b60448201526064016101a5565b60008351116102ac5760405162461bcd60e51b815260206004820152601b60248201527f4465736372697074696f6e2063616e6e6f7420626520656d707479000000000060448201526064016101a5565b60008551116102fd5760405162461bcd60e51b815260206004820152601960248201527f496d6167652055524c2063616e6e6f7420626520656d7074790000000000000060448201526064016101a5565b60008681526003602052604090206006015460ff161561035f5760405162461bcd60e51b815260206004820152601760248201527f506f6c6c696e6720616c72656164792064656c6574656400000000000000000060448201526064016101a5565b6000868152600360205260409020600401546001116103905760405162461bcd60e51b81526004016101a590612296565b8181116103f05760405162461bcd60e51b815260206004820152602860248201527f456e642064617465206d7573742062652067726561746572207468616e207374604482015267617274206461746560c01b60648201526084016101a5565b600086815260036020526040902060020161040b858261234f565b50600086815260036020819052604090912001610428848261234f565b5060008681526003602052604090206007810183905560088101829055600101610452868261234f565b50505050505050565b6060600060015b60005481116104a45760008181526003602052604090206006015460ff16610492578161048e81612425565b9250505b8061049c81612425565b915050610462565b508067ffffffffffffffff8111156104be576104be611cb2565b6040519080825280602002602001820160405280156104f757816020015b6104e4611ada565b8152602001906001900390816104dc5790505b509150600060015b60005481116108d05760008181526003602052604090206006015460ff166108be5760036000828152602001908152602001600020604051806101a00160405290816000820154815260200160018201805461055a906122c6565b80601f0160208091040260200160405190810160405280929190818152602001828054610586906122c6565b80156105d35780601f106105a8576101008083540402835291602001916105d3565b820191906000526020600020905b8154815290600101906020018083116105b657829003601f168201915b505050505081526020016002820180546105ec906122c6565b80601f0160208091040260200160405190810160405280929190818152602001828054610618906122c6565b80156106655780601f1061063a57610100808354040283529160200191610665565b820191906000526020600020905b81548152906001019060200180831161064857829003601f168201915b5050505050815260200160038201805461067e906122c6565b80601f01602080910402602001604051908101604052809291908181526020018280546106aa906122c6565b80156106f75780601f106106cc576101008083540402835291602001916106f7565b820191906000526020600020905b8154815290600101906020018083116106da57829003601f168201915b505050918352505060048201546020808301919091526005830154604080840191909152600684015460ff8116151560608501526001600160a01b0361010091829004166080850152600785015460a0850152600885015460c0850152600985015460e0850152600a85018054835181860281018601909452808452919094019391928301828280156107b357602002820191906000526020600020905b81546001600160a01b03168152600190910190602001808311610795575b50505050508152602001600b8201805480602002602001604051908101604052809291908181526020016000905b8282101561088d578382906000526020600020018054610800906122c6565b80601f016020809104026020016040519081016040528092919081815260200182805461082c906122c6565b80156108795780601f1061084e57610100808354040283529160200191610879565b820191906000526020600020905b81548152906001019060200180831161085c57829003601f168201915b5050505050815260200190600101906107e1565b505050915250859050836108a081612425565b9450815181106108b2576108b261243e565b60200260200101819052505b806108c881612425565b9150506104ff565b50505090565b6108de611ada565b60036000838152602001908152602001600020604051806101a001604052908160008201548152602001600182018054610917906122c6565b80601f0160208091040260200160405190810160405280929190818152602001828054610943906122c6565b80156109905780601f1061096557610100808354040283529160200191610990565b820191906000526020600020905b81548152906001019060200180831161097357829003601f168201915b505050505081526020016002820180546109a9906122c6565b80601f01602080910402602001604051908101604052809291908181526020018280546109d5906122c6565b8015610a225780601f106109f757610100808354040283529160200191610a22565b820191906000526020600020905b815481529060010190602001808311610a0557829003601f168201915b50505050508152602001600382018054610a3b906122c6565b80601f0160208091040260200160405190810160405280929190818152602001828054610a67906122c6565b8015610ab45780601f10610a8957610100808354040283529160200191610ab4565b820191906000526020600020905b815481529060010190602001808311610a9757829003601f168201915b505050918352505060048201546020808301919091526005830154604080840191909152600684015460ff8116151560608501526001600160a01b0361010091829004166080850152600785015460a0850152600885015460c0850152600985015460e0850152600a8501805483518186028101860190945280845291909401939192830182828015610b7057602002820191906000526020600020905b81546001600160a01b03168152600190910190602001808311610b52575b50505050508152602001600b8201805480602002602001604051908101604052809291908181526020016000905b82821015610c4a578382906000526020600020018054610bbd906122c6565b80601f0160208091040260200160405190810160405280929190818152602001828054610be9906122c6565b8015610c365780601f10610c0b57610100808354040283529160200191610c36565b820191906000526020600020905b815481529060010190602001808311610c1957829003601f168201915b505050505081526020019060010190610b9e565b505050915250909392505050565b60008181526002602052604090205460ff16610c865760405162461bcd60e51b81526004016101a59061226e565b60008181526003602052604090206006015461010090046001600160a01b03163314610cea5760405162461bcd60e51b8152602060048201526013602482015272556e617574686f72697a656420656e7469747960681b60448201526064016101a5565b600081815260036020526040902060040154600111610d1b5760405162461bcd60e51b81526004016101a590612296565b6000908152600360205260409020600601805460ff19166001179055565b60008381526002602052604090205460ff16610d675760405162461bcd60e51b81526004016101a59061226e565b6000825111610daf5760405162461bcd60e51b81526020600482015260146024820152736e616d652063616e6e6f7420626520656d70747960601b60448201526064016101a5565b6000815111610df85760405162461bcd60e51b8152602060048201526015602482015274696d6167652063616e6e6f7420626520656d70747960581b60448201526064016101a5565b600083815260036020526040902060040154600111610e295760405162461bcd60e51b81526004016101a590612296565b600083815260056020908152604080832033845290915290205460ff1615610e875760405162461bcd60e51b8152602060048201526011602482015270105b1c9958591e4818dbdb9d195cdd1959607a1b60448201526064016101a5565b610e95600180546001019055565b610e9d611b4d565b6040818101849052602080830184815233606085015260018054855260008881526006845284812086518252909352929091208351815590518392820190610ee5908261234f565b5060408201516002820190610efa908261234f565b5060608201516003820180546001600160a01b0319166001600160a01b039092169190911790556080820151600482015560a08201518051610f46916005840191602090910190611b8c565b50505060008481526005602090815260408083203384528252808320805460ff1916600190811790915587845260038352908320600b01805491820181558352912001610f93838261234f565b506000848152600360205260408120600501805491610fb183612425565b919050555050505050565b60008281526002602052604090205460ff16610fea5760405162461bcd60e51b81526004016101a59061226e565b600082815260046020908152604080832033845290915290205460ff16156110445760405162461bcd60e51b815260206004820152600d60248201526c105b1c9958591e481d9bdd1959609a1b60448201526064016101a5565b60008281526003602052604090206006015460ff161561109e5760405162461bcd60e51b8152602060048201526015602482015274506f6c6c696e67206e6f7420617661696c61626c6560581b60448201526064016101a5565b6000828152600360205260409020600501546001106110f85760405162461bcd60e51b81526020600482015260166024820152754e6f7420656e6f75676820636f6e74657374616e747360501b60448201526064016101a5565b600082815260036020526040902060070154611112611abb565b101580156111375750600082815260036020526040902060080154611135611abb565b105b6111835760405162461bcd60e51b815260206004820152601960248201527f566f74696e67206d75737420626520696e2073657373696f6e0000000000000060448201526064016101a5565b60008281526003602052604081206004018054916111a083612425565b90915550506000828152600360209081526040808320600a0180546001810182559084528284200180546001600160a01b031916331790558483526006825280832084845290915281206004018054916111f983612425565b9091555050600082815260066020908152604080832084845282528083206005018054600181810183559185528385200180546001600160a01b03191633908117909155868552600484528285208186529093529220805460ff19169092179091557f4d99b957a2bc29a30ebd96a7be8e68fe50a3c701db28a91436490b7d53870ca4611284611abb565b60405190815260200160405180910390a25050565b6060600060015b60015481116112ea5760008481526006602090815260408083208484529091529020548190036112d857816112d481612425565b9250505b806112e281612425565b9150506112a0565b508067ffffffffffffffff81111561130457611304611cb2565b60405190808252806020026020018201604052801561133d57816020015b61132a611b4d565b8152602001906001900390816113225790505b509150600060015b6001548111611595576000858152600660209081526040808320848452909152902054819003611583576000858152600660209081526040808320848452825291829020825160c081019093528054835260018101805491928401916113aa906122c6565b80601f01602080910402602001604051908101604052809291908181526020018280546113d6906122c6565b80156114235780601f106113f857610100808354040283529160200191611423565b820191906000526020600020905b81548152906001019060200180831161140657829003601f168201915b5050505050815260200160028201805461143c906122c6565b80601f0160208091040260200160405190810160405280929190818152602001828054611468906122c6565b80156114b55780601f1061148a576101008083540402835291602001916114b5565b820191906000526020600020905b81548152906001019060200180831161149857829003601f168201915b505050505081526020016003820160009054906101000a90046001600160a01b03166001600160a01b03166001600160a01b03168152602001600482015481526020016005820180548060200260200160405190810160405280929190818152602001828054801561155057602002820191906000526020600020905b81546001600160a01b03168152600190910190602001808311611532575b50505050508152505084838061156590612425565b9450815181106115775761157761243e565b60200260200101819052505b8061158d81612425565b915050611345565b505050919050565b6115a5611b4d565b6000838152600660209081526040808320858452825291829020825160c081019093528054835260018101805491928401916115e0906122c6565b80601f016020809104026020016040519081016040528092919081815260200182805461160c906122c6565b80156116595780601f1061162e57610100808354040283529160200191611659565b820191906000526020600020905b81548152906001019060200180831161163c57829003601f168201915b50505050508152602001600282018054611672906122c6565b80601f016020809104026020016040519081016040528092919081815260200182805461169e906122c6565b80156116eb5780601f106116c0576101008083540402835291602001916116eb565b820191906000526020600020905b8154815290600101906020018083116116ce57829003601f168201915b505050505081526020016003820160009054906101000a90046001600160a01b03166001600160a01b03166001600160a01b03168152602001600482015481526020016005820180548060200260200160405190810160405280929190818152602001828054801561178657602002820191906000526020600020905b81546001600160a01b03168152600190910190602001808311611768575b50505050508152505090505b92915050565b60008451116117e25760405162461bcd60e51b81526020600482015260166024820152755469746c652063616e206e6f7420626520656d70747960501b60448201526064016101a5565b60008351116118335760405162461bcd60e51b815260206004820152601c60248201527f4465736372697074696f6e2063616e206e6f7420626520656d7074790000000060448201526064016101a5565b60008551116118845760405162461bcd60e51b815260206004820152601a60248201527f496d6167652075726c2063616e206e6f7420626520656d70747900000000000060448201526064016101a5565b600082116118de5760405162461bcd60e51b815260206004820152602160248201527f53746172742064617465206d7573742062652067726561746572207468616e206044820152600360fc1b60648201526084016101a5565b81811161193e5760405162461bcd60e51b815260206004820152602860248201527f456e642064617465206d7573742062652067726561746572207468616e205374604482015267617274204461746560c01b60648201526084016101a5565b61194c600080546001019055565b611954611ada565b6000548152604081018590526060810184905260208101869052610100810183905261012081018290523360e082015261198c611abb565b61014082015280516000908152600360209081526040909120825181559082015182919060018201906119bf908261234f565b50604082015160028201906119d4908261234f565b50606082015160038201906119e9908261234f565b506080820151600482015560a0820151600582015560c082015160068201805460e08501516001600160a81b0319909116921515610100600160a81b031916929092176101006001600160a01b0390931683021790558201516007820155610120820151600882015561014082015160098201556101608201518051611a7991600a840191602090910190611b8c565b506101808201518051611a9691600b840191602090910190611bf1565b505090516000908152600260205260409020805460ff19166001179055505050505050565b6000611ac9426103e8612454565b611ad5906103e861246b565b905090565b604051806101a0016040528060008152602001606081526020016060815260200160608152602001600081526020016000815260200160001515815260200160006001600160a01b0316815260200160008152602001600081526020016000815260200160608152602001606081525090565b6040518060c0016040528060008152602001606081526020016060815260200160006001600160a01b0316815260200160008152602001606081525090565b828054828255906000526020600020908101928215611be1579160200282015b82811115611be157825182546001600160a01b0319166001600160a01b03909116178255602090920191600190910190611bac565b50611bed929150611c43565b5090565b828054828255906000526020600020908101928215611c37579160200282015b82811115611c375782518290611c27908261234f565b5091602001919060010190611c11565b50611bed929150611c58565b5b80821115611bed5760008155600101611c44565b80821115611bed576000611c6c8282611c75565b50600101611c58565b508054611c81906122c6565b6000825580601f10611c91575050565b601f016020900490600052602060002090810190611caf9190611c43565b50565b634e487b7160e01b600052604160045260246000fd5b600082601f830112611cd957600080fd5b813567ffffffffffffffff80821115611cf457611cf4611cb2565b604051601f8301601f19908116603f01168101908282118183101715611d1c57611d1c611cb2565b81604052838152866020858801011115611d3557600080fd5b836020870160208301376000602085830101528094505050505092915050565b60008060008060008060c08789031215611d6e57600080fd5b86359550602087013567ffffffffffffffff80821115611d8d57600080fd5b611d998a838b01611cc8565b96506040890135915080821115611daf57600080fd5b611dbb8a838b01611cc8565b95506060890135915080821115611dd157600080fd5b50611dde89828a01611cc8565b9350506080870135915060a087013590509295509295509295565b6000815180845260005b81811015611e1f57602081850181015186830182015201611e03565b506000602082860101526020601f19601f83011685010191505092915050565b600081518084526020808501945080840160005b83811015611e785781516001600160a01b031687529582019590820190600101611e53565b509495945050505050565b600081518084526020808501808196508360051b8101915082860160005b85811015611ecb578284038952611eb9848351611df9565b98850198935090840190600101611ea1565b5091979650505050505050565b60006101a0825184526020830151816020860152611ef882860182611df9565b91505060408301518482036040860152611f128282611df9565b91505060608301518482036060860152611f2c8282611df9565b9150506080830151608085015260a083015160a085015260c0830151611f5660c086018215159052565b5060e0830151611f7160e08601826001600160a01b03169052565b506101008381015190850152610120808401519085015261014080840151908501526101608084015185830382870152611fab8382611e3f565b925050506101808084015185830382870152611fc78382611e83565b9695505050505050565b6000602080830181845280855180835260408601915060408160051b870101925083870160005b8281101561202657603f19888603018452612014858351611ed8565b94509285019290850190600101611ff8565b5092979650505050505050565b60006020828403121561204557600080fd5b5035919050565b60208152600061205f6020830184611ed8565b9392505050565b60008060006060848603121561207b57600080fd5b83359250602084013567ffffffffffffffff8082111561209a57600080fd5b6120a687838801611cc8565b935060408601359150808211156120bc57600080fd5b506120c986828701611cc8565b9150509250925092565b600080604083850312156120e657600080fd5b50508035926020909101359150565b805182526000602082015160c0602085015261211460c0850182611df9565b90506040830151848203604086015261212d8282611df9565b91505060018060a01b0360608401511660608501526080830151608085015260a083015184820360a08601526121638282611e3f565b95945050505050565b6000602080830181845280855180835260408601915060408160051b870101925083870160005b8281101561202657603f198886030184526121af8583516120f5565b94509285019290850190600101612193565b60208152600061205f60208301846120f5565b600080600080600060a086880312156121ec57600080fd5b853567ffffffffffffffff8082111561220457600080fd5b61221089838a01611cc8565b9650602088013591508082111561222657600080fd5b61223289838a01611cc8565b9550604088013591508082111561224857600080fd5b5061225588828901611cc8565b9598949750949560608101359550608001359392505050565b6020808252600e908201526d141bdb1b081b9bdd08199bdd5b9960921b604082015260600190565b602080825260169082015275506f6c6c2068617320766f74657320616c726561647960501b604082015260600190565b600181811c908216806122da57607f821691505b6020821081036122fa57634e487b7160e01b600052602260045260246000fd5b50919050565b601f82111561234a57600081815260208120601f850160051c810160208610156123275750805b601f850160051c820191505b8181101561234657828155600101612333565b5050505b505050565b815167ffffffffffffffff81111561236957612369611cb2565b61237d8161237784546122c6565b84612300565b602080601f8311600181146123b2576000841561239a5750858301515b600019600386901b1c1916600185901b178555612346565b600085815260208120601f198616915b828110156123e1578886015182559484019460019091019084016123c2565b50858210156123ff5787850151600019600388901b60f8161c191681555b5050505050600190811b01905550565b634e487b7160e01b600052601160045260246000fd5b6000600182016124375761243761240f565b5060010190565b634e487b7160e01b600052603260045260246000fd5b80820281158282048414176117925761179261240f565b808201808211156117925761179261240f56fea2646970667358221220f90f0275ff6fb0cd0fb739b11527c990c6886a39078c2ef3e2c5b8d560fcf03164736f6c63430008110033",
  "linkReferences": {},
  "deployedLinkReferences": {}
}